:020000040800F2
:1000000008040020C5010008B1020008AD02000884
:10001000AF0200082D020008FD03000800000000E8
:10002000000000000000000000000000D1020008F5
:100030002F02000800000000B3020008A903000816
:10004000DF010008DF010008DF010008DF01000810
:10005000DF010008DF010008DF010008DF01000800
:10006000DF010008DF010008DF010008DF010008F0
:10007000DF010008DF010008DF010008DF010008E0
:10008000DF010008DF010008DF010008DF010008D0
:10009000DF010008DF010008DF010008DF010008C0
:1000A000DF010008DF010008DF010008DF010008B0
:1000B000DF010008DF010008DF010008DF010008A0
:1000C000DF010008DF010008DF010008DF01000890
:1000D000DF010008DF010008DF010008DF01000880
:1000E000DF010008DF010008DF010008DF01000870
:1000F000DF010008DF010008DF010008DF01000860
:10010000DF010008DF010008DF010008DF0100084F
:10011000DF010008DF010008DF010008DF0100083F
:10012000DF010008DF010008DF010008DF0100082F
:10013000DF010008DF010008DF010008DF0100081F
:10014000DF010008DF010008DF010008DF0100080F
:10015000DF010008DF010008DF010008DF010008FF
:10016000DF010008DF010008DF010008DF010008EF
:10017000DF010008DF010008DF010008DF010008DF
:10018000DF010008DF010008DF010008DF010008CF
:10019000DF010008DF010008DF010008DF010008BF
:1001A000DF010008DF010008DF010008DFF810D0E0
:1001B00000F01AF8004800471D040008AFF3008063
:1001C000080400200648804706480047FEE7FEE78F
:1001D000FEE7FEE7FEE7FEE7FEE7FEE7FEE7FEE7F7
:1001E000AD030008AD010008064C074D06E0E068CD
:1001F00040F0010394E8070098471034AC42F6D36E
:10020000FFF7D8FF280400084804000810B50121B2
:10021000802000F04FF8BDE810400249024800F08D
:1002200007B8000000000020001C0240FEE77047F5
:100230002DE9F041002201274FF0030C07FA02F5E7
:100240000B682B40AB422CD1066853000CFA03F428
:10025000A64306600E79D0F800809E4046EA080664
:1002600006600E79012E01D0022E12D18668A643B7
:1002700086604E79D0F808809E4046EA080686607F
:100280004668AE43466045688E799640B6B23543BF
:100290004560C568A543C560CC799C40C3681C43D4
:1002A000C460521C102AC9D3BDE8F081FEE7FEE706
:1002B00070477047054A002903D011680143116057
:1002C0007047116881431160704700003038024068
:1002D000704700001CB50021019100912E4A106862
:1002E00040F4803010604FF4A043106800F40030F8
:1002F00000900198401C0190009810B90198984214
:10030000F3D11068800302D50120009000E0009135
:10031000009801283FD120484030016841F08051C9
:1003200001601E49086840F4404008601A480830DF
:1003300003680360036843F400430360036843F405
:10034000A0530360041F164B2360136843F08073AF
:10035000136013689B01FCD50A6842F480320A607E
:100360004A68D203FCD50A6842F400320A604A683F
:100370009203FCD50B4A40F205711160016821F02F
:1003800003010160016841F0020101600168C1F3ED
:1003900081010229FAD11CBD0038024000700040E2
:1003A000195A4007003C02407047000010B50F4842
:1003B000016841F0010101600C4A0021083211601E
:1003C00002680B4B1A400260031D0A4A1A60026859
:1003D00022F48022026005480C300160FFF77AFFAA
:1003E00005494FF00060086010BD00000038024071
:1003F000FFFFF6FE1030002408ED00E0FEE702E00B
:1004000008C8121F08C1002AFAD17047704700209F
:1004100001E001C1121F002AFBD1704710B5FFF7A0
:10042000F5FE002010BD0000480400080000002078
:1004300008000000FE030008500400080800002027
:10044000000400000E040008000400000101000187
:04000005080001AD41
:00000001FF
