:020000040800F2
:1030000008C30020C5310008CD310008352F010864
:1030100000000000000000000000000000000000B0
:10302000000000000000000000000000D131000896
:103030000000000000000000D33100083DBC010882
:10304000D7310008D7310008D7310008D731000840
:10305000D7310008D7310008D7310008D731000830
:10306000D73100086DAB000871AB000871AA0008E9
:10307000D7310008D7310008D7310008D731000810
:10308000D7310008D7310008D7310008D731000800
:1030900039BD010851BD010861BD0108D7310008E3
:1030A000D7310008D7310008D7310008B5C9010869
:1030B00021CA010855CA0108D731000800F002F8FA
:1030C00000F055F80CA030C8083824182D18A24676
:1030D000671EAB4654465D46AC4201D100F047F84E
:1030E0007E460F3E0FCCB6460126334200D0FB1A77
:1030F000A246AB4633431847A45A0400C45A0400FE
:103100000023002400250026103A01D378C1FBD803
:10311000520700D330C100D50B60704710B5662947
:1031200002D13AF081FE10BD642902D100F064F9A9
:1031300010BD782902D100F095F910BD732902D194
:1031400001F048FB10BD002010BD1FB501F06EFC62
:103150000400002000213AF067FD401C6060002060
:1031600000213AF04BFDE0601FBD10B510BD02F02C
:10317000B7F81146FFF7E9FF1EF01AF802F06EFBF0
:1031800003B4FFF7F2FF03BC02F0A0FB70B50546E5
:103190000C46164602E00FCC0FC5103E102EFAD298
:1031A000082E02D303CC03C5083E042E07D301CC5E
:1031B00001C5361F03E021782970641C6D1C761E42
:1031C000F9D270BD0748804707480047FEE7FEE791
:1031D000FEE7FEE7FEE7FEE704480549054A064B21
:1031E0007047000045BC0108BD30000808A1002060
:1031F00008C3002008A3002008A300204343514334
:1032000030B55C18010C130C0D4692B25D4380B2D0
:1032100051432C19054655430A0C09044D196241C6
:103220005843010C00044019514130BDFEB505461C
:1032300010460C46184373D0AE468C460020AD1A9B
:1032400001469C4167D36646002701243D46B61AD5
:103250009D4102D313463A462124654676462F0403
:10326000360C3E432D0CB61A9D4104D3150C1B049D
:103270002B4312041034654676462F06360A3E4329
:103280002D0AB61A9D4104D3150E1B022B431202C0
:103290000834654676462F0736093E432D09B61A8F
:1032A0009D4104D3150F1B012B431201241D6546BC
:1032B0007646AF07B6083E43AD08B61A9D4104D323
:1032C000950F9B002B439200A41C65467646EF07A2
:1032D00076083E436D08B61A9D411AD392185B4199
:1032E000641C16E00018764665464941B71A9D41B0
:1032F0000191009009D36046B11A98418E468446E8
:10330000009801990025401C6941DD0752082A43B5
:103310005B08641EE6D57246634603B0F0BDFFE766
:1033200000200146C046C0462A462346F5E7000075
:103330000FB41CB5074B06AA7B446946009005985C
:1033400001F01DFA0020694601F02CFA1CBC08BCF3
:1033500004B018476914000070B504468569006818
:10336000C10601D5302600E02026C00707D070BD79
:1033700062683046A1689047206A401C20626D1E3A
:10338000F6D570BD70B5044685690078C00707D1D1
:1033900070BD6268A16820209047206A401C2062AE
:1033A0006D1EF6D570BD70B50C460546012A05D0D8
:1033B0002878800600D5EA69002302E0012305E0B1
:1033C0005B1C934202D2E05C0028F9D1A869E618A0
:1033D000C01AA861286AC01828622846FFF7BCFFF7
:1033E00004E06A682078A968641C9047B442F8D366
:1033F0002846FFF7C7FF70BDF7B50025752910688F
:10340000009914A611D0C046C046002802DA4042F6
:1034100011A608E0009909688A0701D50FA602E005
:10342000490704D50EA6012501E0C046C046009F0D
:103430000024243704E001F05FFA30313955641C70
:103440000028F8D12B4632462146009800F02DFF87
:10345000FEBD0000000000002D0000002B00000059
:103460002000000070B504460D4621461068C04695
:10347000C0462188090502D50F4A7A4402E00E4A67
:103480007A440E3223460021243305E00607000962
:10349000360F965D5E54491C0028F7D12078002332
:1034A000000705D5702D03D0002901D00223113269
:1034B000204600F0FAFE70BD1DBC0300F3B50446C3
:1034C000002081B020622046E168884700287DD036
:1034D000252802D06268A16883E0454F00257F441B
:1034E0002046E16888472028064608DB312E06D2B0
:1034F000B81920380078002801D00543F0E7A80764
:1035000001D5042085430020E0610746A0612A2EF2
:103510000AD0304619F0C6FD002827D0B80000199F
:10352000303E0090866119E00298BA00121902C874
:10353000916102902046E1688847012F064617D125
:10354000E06900281FDA202085431CE000980A214A
:103550008069484300998019303888612046E168C5
:103560008847064619F09EFD0028EFD1012F0AD0AA
:103570002E2E08D12046E1688847064620200543C4
:103580007F1C022FC3DBA069002803DA4042A06140
:1035900001200543E80701D010208543002E24D0E8
:1035A00030464138192803D80120C002054320368F
:1035B000204625603146029A1546FFF7AFFD0028E8
:1035C0000CD0012807D0ED1DE80800E00DE0C00098
:1035D0000830029077E72D1D029574E76268304647
:1035E000A1689047206A401C6CE7206AFEBD00007D
:1035F000E1BB030070B5064600F048FE04680546CE
:1036000030460A22002101F03FF92C6070BD0346CC
:1036100010B50B439B070FD1042A0DD308C810C95E
:10362000121FA342F8D018BA21BA884201D901204A
:1036300010BD0020C04310BD002A03D0D30703D023
:10364000521C07E0002010BD03780C78401C491C78
:103650001B1B07D103780C78401C491C1B1B01D194
:10366000921EF1D1184610BD034670B502460B43B9
:103670009B070FD10E4CE60100E008C208C91D1BD4
:103680009D433542F9D0D9B21170521C00290DD09A
:103690001B0AF8E70B78491C1370521C002B05D04D
:1036A0000B78491C1370521C002BF3D170BD000025
:1036B00001010101F8B5042A2CD3830712D00B783D
:1036C000491C0370401C521E83070BD00B78491C09
:1036D0000370401C521E830704D00B78491C0370F2
:1036E000401C521E8B079B0F05D0C91ADF002023F8
:1036F000DE1B08C90AE0FFF749FDF8BD1D4608C9F1
:10370000FD401C46B4402C4310C0121F042AF5D2C1
:10371000F308C91A521EF0D40B78491C0370401CE0
:10372000521EEAD40B78491C0370401C012AE4D4D1
:1037300009780170F8BD431A70B593421BD28918FD
:10374000801804E0491E401E0B78521E0370930738
:10375000F8D106E01039103878C9103978C010381F
:10376000103A102AF6D203E0091F001F0B6803600D
:10377000121FF9D570BDFFF709FD70BDF8B50646FB
:1037800014460843800707D0751AA54219D20819B4
:10379000102D13D2311907E03046FFF7CCFFF8BDEA
:1037A000401E491E02780A70641EF9D2F8BD471BFC
:1037B0002A463946FFF77EFF641B3846A542F6D3FA
:1037C000011B22463046FFF775FFF8BDD2B210B597
:1037D00013029A1813049A1800F00EF810BD01E0B5
:1037E00004C0091F0429FBD28B0701D50280801C6D
:1037F000C90700D00270704700290BD0C30702D060
:103800000270401C491E022904D3830702D502809E
:10381000801C891EE3E70022EEE70022DFE70000BC
:10382000F8B507460B4639461943890713D1164C9C
:10383000E601042A0FD302CB0D1B8D43354202D182
:1038400002C0121FF5E7CBB20370401C521E002BC2
:1038500013D0090AF7E7002A14D01978521E5B1C0E
:103860000170401C002908D0002A0BD01978521E84
:103870005B1C0170401C0029EDD1002A02D01146CA
:10388000FFF7C9FF3846F8BD01010101024670B5D6
:103890000A4392072AD11E4DEE0104C808C9541BE1
:1038A0009443344017D0D0B2D9B2401A2106014314
:1038B00010D190B299B2401A210401430AD11002EA
:1038C0001902000A090A401A2102014302D1100E0E
:1038D000190E401A70BD9A42DFD010BA19BA884248
:1038E00001D9012070BD0020C04370BD02780B7863
:1038F000401C491C002A09D09A4207D102780B7853
:10390000401C491C002A01D09A42EFD0D01A70BD49
:10391000010101010378C2781946437812061B029F
:1039200019438378C0781B04194311430902090A1B
:10393000000608437047020A08704A70020C8A7039
:10394000020ECA70704710B542780378110E120249
:1039500013438278140C12041343C2782143140ACF
:103960001206134302792143114342791202114393
:103970008279C0791204114300060143184610BD34
:10398000002203098B422CD3030A8B4211D300235C
:103990009C464EE003460B433CD4002243088B4236
:1039A00031D303098B421CD3030A8B4201D39446C3
:1039B0003FE0C3098B4201D3CB01C01A52418309B6
:1039C0008B4201D38B01C01A524143098B4201D370
:1039D0004B01C01A524103098B4201D30B01C01A9B
:1039E0005241C3088B4201D3CB00C01A5241830815
:1039F0008B4201D38B00C01A524143088B4201D342
:103A00004B00C01A5241411A00D2014652411046A1
:103A100070475DE0CA0F00D04942031000D3404216
:103A2000534000229C4603098B422DD3030A8B424C
:103A300012D3FC22890112BA030A8B420CD38901EA
:103A400092118B4208D3890192118B4204D38901D0
:103A50003AD0921100E08909C3098B4201D3CB010E
:103A6000C01A524183098B4201D38B01C01A5241C3
:103A700043098B4201D34B01C01A524103098B42C7
:103A800001D30B01C01A5241C3088B4201D3CB00B2
:103A9000C01A524183088B4201D38B00C01A524195
:103AA000D9D243088B4201D34B00C01A5241411A6C
:103AB00000D20146634652415B10104601D340429A
:103AC000002B00D54942704763465B1000D340424B
:103AD00001B50020C046C04602BD70477047704720
:103AE0000246C80FC00781434B0030B54B405B0016
:103AF0009B0D20D01923DB06C91801231B05994211
:103B000020DB0324A40704251346AB400BD3002B72
:103B100004D1EB0613409B00E34204D40124640764
:103B2000002312195941FF231B0599420BD2C900EA
:103B30000143500F09E0CB0204D5014308030243BF
:103B400005D0054830BDFF21C905084330BD0846F2
:103B500007210905884330BD0000C07FF0B5F94D4D
:103B60000C091E092C402E402F468BB0A7437DD058
:103B7000B543FCD0002E7AD0002CFCD00D465D4021
:103B8000ED0F2543AC1BFF25AD0464190894C50255
:103B9000440DC9022143500DDC0204430120C0073B
:103BA00001430443D2020191200C110C00958C4674
:103BB000010423468B430A9161460904E24D8A437E
:103BC0000991010A7D4449198039097805464D4318
:103BD00001266D18F605751B6943C90C640B891C19
:103BE0004C436418B5012C1B250C2E04B4434C43E4
:103BF0004D43210C691889090591009DE90701D001
:103C00000121C90704912C4601996708CD072F436C
:103C10004C08059DE10B4D432D0C29466646754326
:103C200002950D4645432E46029D7D1BB4410095ED
:103C30000D465D4301942C0C2F040D465543AE46B2
:103C40002D0C3D43029503947546049C2D04641B82
:103C5000049406D2029C039D641C002675410395C2
:103C6000029401AC70CC009F7D1B01E03EE162E15B
:103C7000B44109040095079101940599A408614392
:103C8000090C0C464443650BE7040C466646744336
:103C9000A646640B3C43039502947446049DE404D9
:103CA0002C1B049406D2029C039D641C00267541C3
:103CB0000395029401AC70CC009F7D1BB44101942C
:103CC0000C465C430095650FE7000C465443A6463E
:103CD000640F3C43039502947446049DE4002C1B3E
:103CE000049406D2029C039D641C00267541039532
:103CF000029401AC70CC009F7D1BB441AE09AF06AD
:103D0000049DC900AD092F43049DA406AD0604958A
:103D1000079D344369180791059DE10B4D432D0C18
:103D200029466646754302950D4645432E46029D3B
:103D30007D1BB44100950D465D4301942C0C2F046E
:103D40000D465543AE462D0C3D43029503947546F2
:103D5000049C2D04641B049406D2029C039D641CE5
:103D6000002675410395029401AC70CC009F7D1B29
:103D7000B44101948C050694079C890A611800954A
:103D80000791019C0599A4086143090C0D46454320
:103D9000680BEF040D46644665436C0B3C43049F7F
:103DA000ED047D1BAC4602D20025641C6841009ED8
:103DB000019D371B85410846584301950C46460F27
:103DC000C5005443600F28436546E4002C1B02D213
:103DD0000025401C6E41019D3F1AB5412846BD0992
:103DE000800628438446A009BF064E020699A40611
:103DF00076180743079D002068410A9907901943E8
:103E00000020099B00906046FF1913434041E20FD8
:103E100064003A43A4460446D71A8C41A04203D911
:103E20000120009020463A46C70F94184041624650
:103E3000D20F2243644664000494009CBE46640092
:103E4000D71AA446044602978C417746002F01D129
:103E5000A04204D96046401C8446029A2046C40F02
:103E6000A64694184041049A0546D20F2243644660
:103E70006400D31A8D417146002901D1A84202D9AC
:103E800028461A46641C10430122002800D016431D
:103E900061020020079B891904465C410223002C23
:103EA00002DB491813466441089DCE0A2D145D19A2
:103EB0004B056705E10A2C050D1908993E43C90712
:103EC0006940002B08D0934006D30022761C514154
:103ED000002B01D1760876001C4A002D43DB1542E9
:103EE00041D0AA433FD030460BB0F0BD06180D4676
:103EF0004D41174C7642AC411AD395181C465C4193
:103F0000134A6D42A24113D3012252054C00D44200
:103F10000AD15C00D4420BD04B4002D5920211432F
:103F2000E2E749004908DFE75940C90FC90718E02F
:103F300000200849D8E7054801420DD10342F7D0D7
:103F4000F2E700000000FF070CB503000000F07F5F
:103F50000000E0FF0000F87F114859400143C01203
:103F600041400020C0E70123089A9B069A4205DCE5
:103F7000032252078918C90FC907B5E7052252075E
:103F80008918074A1143D2125140ADE770B5154662
:103F90001C4602460B4628462146FFF7DFFD70BD52
:103FA000FFFFFF7F1F22030C02D10F22000402D06B
:103FB000030E03D004E00020014670470002083AD7
:103FC000030F01D10001121F830F01D18000921E47
:103FD000002801DB4000521E120551184205C01294
:103FE000411810467047C10FC90700D04042012256
:103FF00092071143D6E701218907D3E70121C905BB
:104000000123411842001B06D3185B0E0AD0C110D1
:104010000722D206891840075242D14201D55200E8
:1040200089187047090208D50146002A03D0C10F3C
:10403000C9070020704710467047420202D0002096
:1040400002497047072109050143F4E70000F87FA2
:10405000F0B5FF252D04C609C209FF2704462E40EE
:104060000137CB093E4348402A402B400746002AEF
:104070006BD0002B69D0AA4267D0AB4265D0002834
:1040800000DA32460125ED0529432C4309022002BE
:10409000090AD21A4B0C7F24E31A434C000A7C44D1
:1040A000E35C7D242404121914145B00A2188842D6
:1040B00001D3521C00E0400049420C465C432411ED
:1040C0005C43DB016415E318040A5C43C502200D60
:1040D0000C4644436419250A5D432303EC0C0D464A
:1040E000654300030019EB184C42A34201D35B184F
:1040F000401CD4052018002B07D05B00C91804D33E
:10410000401C002901D1400840003F2189048A4217
:1041100009D3002A08DC1106090F04D0032149073E
:104120004018C00FC007F0BD0122410012068918D7
:104130007F2252069142F6D205214907C84201D595
:104140009010F0BDFF20C005F0BD002F00DA324610
:104150001648AA4207D2AB4205D21902090E17D05F
:10416000F80FC007F0BDFF2563002D06AB42F9D85C
:104170004900A942F6D8AB4201D1A942F2D0A942E6
:1041800001D1002101E061004908D0050843F0BDDC
:104190001102090EFBD0FF200243D005F0BD0A46F4
:1041A0000146104654E70000B2B003000000C07F93
:1041B00010B501469E240002CA15A307002A02D0AA
:1041C0001843002A04DBA21A002A0CDDD04010BDDF
:1041D0001206120E01D140004008A21A03D4D040AA
:1041E00040420028F3DDFF2248001206904201D928
:1041F000002010BDC817C043584010BD0102C215B1
:1042000004D00123DB071943002A0ADB9E239A1AF4
:1042100002D40846D0407047FF2241001206914266
:1042200001D900207047C017C04370471F22030CFC
:1042300002D10F2200041CD0030E01D10002083A63
:10424000030F01D10001121F830F01D18000921EC4
:10425000002801DB4000521ED205511802125118ED
:104260001922904004D3491C002801D14908490073
:1042700008467047C10FC90700D04042012292078B
:104280001143D3E701218907D0E7000000487047B8
:10429000A8A0002010B5FFF7F9FF006810BD10B509
:1042A0000446FFF7F3FF046010BDFFB504460D465A
:1042B00081B0243000902168880604D51022E0697E
:1042C0009143216000E00120A84201DD471B00E08E
:1042D00000270498A1697A191018081AA06120789B
:1042E000C00602D42046FFF737F8002608E00398FE
:1042F0006268A168805D9047206A401C761C20623D
:1043000004988642F3DB2078C0060AD52046FFF7E2
:1043100023F806E06268A16830209047206A401CBC
:10432000206238467F1E0028F4DC07E000986268AF
:10433000A168405D9047206A401C206228466D1E9F
:104340000028F3DC2046FFF71DF82078000602D590
:10435000022005B0F0BD0120FBE700007047FFB56B
:104360000C461E468FB003CA089009914F007D0D80
:1043700000D16D1E002108460020C0460321099A85
:1043800089050840002A03DA8200801840080840A6
:10439000800D01280A9002DD0020C0430A90089891
:1043A00007430DD0F048F1492818484307141898DE
:1043B00000281DD07542291E1DDD0A9842421BE0CF
:1043C0001898012802D00020302104E00020F24398
:1043D00005E02154401CB042FBDB30460022189B14
:1043E000002121540F998B600A60486013B0F0BD22
:1043F000BD1B6D1CDFE70A9A002900DA69420BA891
:1044000000F018FC0BAB07CB03AB07C30899099866
:1044100000F07CFC6B4607C30146D5480918002D07
:1044200000910BDDD24903980A9A494240180023B3
:1044300003A90390684600F0D9FE08E003990A9AA0
:104440000023081803A90390684600F079FE6B4624
:1044500007C30004000C03D00020C043410800E063
:104460001046189A002A03D00022009215461EE03A
:10447000751E05D400F0DEFA303262556D1EF9D596
:1044800001220843079602D000227F1C04E0207816
:10449000302801D100227F1E002A069787D01EE017
:1044A000112D07DA00F0C6FA303262556D1C024653
:1044B0000A43F5D1084303D00098002819D00EE034
:1044C0000021681E05E0235C625C63542254401E98
:1044D000491C8142F7DBA81B401E07950690079AEE
:1044E00018990020A0540F98079B069A81600CC071
:1044F0007CE711260020189059E7D21DF0B50D4633
:104500000446D10893B0C90003C90C900D9118F06E
:104510004BFC02460D98C00F01D02D2007E020680B
:10452000810701D52B2002E04007C00F4001032A7C
:104530000F9001D0072A05DB03462946204600F0EC
:10454000BFFA0EE12078800601D5E76900E0062772
:104550002846652D04D0662814D0672D69D12DE03A
:104560000020112F009001DB112300E07B1C0CAA1E
:1045700003A910A8FFF7F3FE1199002610987D1CDF
:104580000E9142E001203B460CAAC0070B9001208F
:10459000009003A910A8FFF7E2FE119D1298109950
:1045A000002600280E9501D1781C0D18781B02D426
:1045B00046427D1C761EE81B00903AE0012F00DA8F
:1045C00001270020112F009001DD112300E03B4660
:1045D0000CAA03A910A8FFF7C2FE11993D46109836
:1045E00000260E91217809070BD40E99A94200DA12
:1045F0000D4603A9012D04DD4A19203AD27F302A45
:1046000006D0B84201DA011D04DA012100910FE061
:104610006D1EEFE7002802DC86192D1A03E0411C0D
:10462000A94200DD0D46801B401C00900120C00700
:104630000B902078000705D40098A84202DB0020E8
:10464000C043009069460020C8720B98012102AF58
:104650000337C907884225D0022010902B201190E3
:104660000B9800280BDA40420B902D20119006E0A9
:104670000B9800F041F930317F1E0B903970109982
:10468000481E00291090F3DC0B980028F0D11198F7
:104690007F1E38702088000501D5452000E0652088
:1046A0007F1E387001A8C01BC01D0B900F980028FA
:1046B00000D0012041190098C01709180B9808185C
:1046C000A169081A401EA0612078C00602D42046C5
:1046D000FEF742FE0F98002805D06268A168904757
:1046E000206A401C20622078C00625D52046FEF7AF
:1046F00033FE21E0002E07DB0E98B04204DD03A854
:104700006268805DA16802E06268A168302090471D
:10471000206A761C401C20620098401E00280090F1
:104720000AD100F083F9C06862680168405CA16842
:104730009047206A401C206228466D1E0028D9DC64
:1047400007E062683878A1687F1C9047206A401CA7
:1047500020620B99481E00290B90F2DC2046FEF7E0
:1047600011FE032042E6000001FCFFFF104D000097
:10477000E1DFFFFF01694A1C02610878704700B55C
:104780008FB002910021059105490193794403916D
:10479000114604906846FEF791FE0FB000BD000080
:1047A000E5FFFFFF0A681070521C0A60704710B5E1
:1047B0004369002B02D0C046C04601E0FEF7F3FD7E
:1047C000012010BD1278014624310A7000224A707F
:1047D0000122ECE711680022D243E8E70FB400237E
:1047E00000B589B00CA900910B99CB60224B7B449A
:1047F000224A7A440792042206930192204A0292A6
:10480000204A7A446B4608920246002039F014FB95
:1048100009B008BC04B0184770B5064615460C46EA
:10482000324686B00020C04301900020049004A8C6
:10483000009102916946FFF7D1FF024604982118C2
:10484000002D05D0002801D0084600E02046286051
:10485000049800280DD0002A02DD0098884208D074
:104860003246081B6946019004A800940294FFF7A1
:10487000B5FF06B070BD00005703000073030000D1
:10488000FFFFFF7FA9020000F7B50F460026009C3E
:104890002578641C002D05D000F0C0F80068405D4C
:1048A000C007F5D12B2D02D02D2D18D0641E39460E
:1048B000029A204600F06AF9002F04D03968A1421C
:1048C00001D1009939607105022400290BDA4042B8
:1048D000002803DDFFF7DAFC0460A007FEBD01201D
:1048E00080020643E3E70028F8DAFFF7CFFC046014
:1048F0000048FEBDFFFFFF7F01468008081A02093D
:104900001018020A1018020C1018C00882001218A1
:104910005200891A01E0401C0A390A29FBD270476B
:10492000F8B5224C4E00069DA6420AD8A64201D1F7
:10493000002806D15E00A64203D8A6420AD1002A6A
:1049400008D00D24240425422CD02946002000F054
:104950009DFCF8BD0C461C430CD4994202D0EFF3E9
:104960000080F8BD904202D0EFF30080F8BDEFF375
:104970000080F8BD09242407E5008B4206D0EFF340
:104980000080A043591A06D2284304E0101A05D328
:10499000EFF30080A04380F30088F8BDEFF30080C0
:1049A000A043F1E7009500F089FCF8BD0000E0FFAE
:1049B00010B5FF231B0644009C421DD84C009C42AE
:1049C0001AD80346124A0B4307D4401A02D3EFF316
:1049D000008010BDEFF3008010BD081A06D2EFF37F
:1049E000008001219043C907084302E0EFF30080F3
:1049F000904380F3008810BD0D231B041A4204D09D
:104A00001146002000F042FC10BD00F061FC10BD1A
:104A10000000009000487047A8A0002010B500F0EA
:104A200005F8001D10BD00BF01920300004870474B
:104A3000C8A000200B4670B50246890780080843CD
:104A400019469D08141AA9412509080705430809B4
:104A50002C194841250A01060D43010A2C19414130
:104A6000200C0D0428430D0C00194D410021401964
:104A70004D41C00869070843E908840F8D002543AC
:104A8000840024184D4124196D41121BAB4107E0ED
:104A90000925ED432C11521963410024401C61414A
:104AA0001C460A250026551BB441F1D270BD10B535
:104AB0000446FFF7B3FF0068005DC007C00F10BDDC
:104AC000F8B51F46044601230068DB0203260146B1
:104AD0001840072A05DB002801D017A506E017A516
:104AE00004E0002801D016A500E016A5102081439F
:104AF0002160A069C01E002FA06101D0401EA061EE
:104B00002046FEF729FC002F09D038466268A168CC
:104B10009047206A401C2062C01C206206E0206A88
:104B2000FAE762682878A1686D1C9047761EF8D273
:104B30002046FEF727FCF8BD4E414E006E616E0028
:104B4000494E4600696E66004268002A08D0016836
:104B50000B78491C002B03D0521E06C01846704724
:104B60000121C160881E70474268002A0BD0C368CB
:104B70000168002B07D183688B4204D0491E521C68
:104B800006C0002070470020C0437047F7B51546A7
:104B900082B00027029C2078641C0197302802D044
:104BA000002D15D015E020780127641C782804D04A
:104BB000582802D0002D09D00BE0002D01D0102D77
:104BC00007D1207800271025641C02E0082500E0AA
:104BD0000A250026009610E000990127694308186D
:104BE00029467143020C80B200908E183804864228
:104BF00001D3012001902078641C294600F08FFB2E
:104C00000028E9DA0398002805D0002F01D0641E9F
:104C100000E0029C04600198002806D0FFF736FBF4
:104C200002210160C81E05B0F0BD009930040843A0
:104C3000F9E70000F7B516468AB0334878446C4669
:104C400003467C33C06F5A689B680DC42E48784475
:104C5000763003AC0DC80DC43720C00108183721C9
:104C60001B30FEF797FE05460C46803D1B3C02D5E7
:104C70006442012000E000200027099010E0E007D6
:104C80000CD00C2020497843794432464C394118E5
:104C90006846012300F054FA6B4607C364107F1C7A
:104CA000002CECD1184F7F442E3F16E0E80712D0BD
:104CB0002001C0190EC80691089307920068F042BF
:104CC00001D1981908903246012306A903A800F0E3
:104CD00037FA03AB07C36D10641C002DE6D10998A9
:104CE000002806D032466946012303A800F07EFA68
:104CF00005E001233246694603A800F021FA0A9B29
:104D000007C30DB0F0BD000054A5030003464000EA
:104D10000A4610B5400D0BD00121C9070F24A4028B
:104D200000191C0364082143540D2143D20207E0FB
:104D300000210120F2E7D40F490021435200401E18
:104D40000029F8DADB0FDB07184310BDFFB50D466D
:104D5000144685B04868516818F000F80091019039
:104D6000A868A16817F0FAFF02910390A86861682B
:104D700017F0F4FF029A12188242029201D2012027
:104D800000E00020019A0B18D2180028019202D0EE
:104D90008A4202D903E08A4201D2012000E00020C9
:104DA0000099081800906868A16817F0D7FF029A68
:104DB00012188242029201D2012000E00020019AE2
:104DC0000B18D2180028019202D08A4202D903E0BF
:104DD0008A4201D2012000E00020009908180090CA
:104DE0002868216840004900400849084018FA49ED
:104DF000471814E001994000C90F0843009001983A
:104E000002994000C90F084301900298039940009D
:104E1000C90F08430290039840007F1E039000983A
:104E20000028E7DA0898002801D0EC4E00E00026C0
:104E3000B74201DA012000E00020002804902AD0C7
:104E4000F71BF806C00E15D0029B2021091A039A01
:104E50008B401A430392029A019BC2408B401A4333
:104E60000292019A009BC2408B4000991A43019222
:104E7000C14000917B110DD06F460320C11A03D5AC
:104E800000218200B95003E08A008100BA587A50AC
:104E9000401EF3D5374603980299002800D0012020
:104EA000014308980291002808460CD0002800D041
:104EB00001200199019A490508430121D20AC9023A
:104EC000D202019200E001210E9B0122D207012BA8
:104ED00002D0002B03D013E0002807D120E090423D
:104EE00004D890420CD1019B0B4209D0019B591868
:104EF000019105D10099491C009101D17F1C0092BC
:104F000000280DD0102108460020C0460498002833
:104F100006D00F98002803D0082108460020C0467C
:104F200028682168019B009A4840C10F0598C9076D
:104F300039430EC009B0F0BDFFB587B0099A089893
:104F400008995368926840688968964600220393DE
:104F500017469446089A12685300099A5B0812682B
:104F6000520052089A1A9E4BD4180A9A002A01D06D
:104F7000352200E0402206920022012315460492C9
:104F8000DB07059324E0002D05D175460346039EFB
:104F90004D1BB34109D375466646039B491B049DCF
:104FA0009841059B7519AC465F4163463B4308D069
:104FB000059B049EDD0776082E435B080496059347
:104FC00001E0521E641EC50FED0749184041521CF6
:104FD000069B9A42D7DB002D04D17546039A6B1AC3
:104FE000824101D203200CE0039A0B466B40424001
:104FF000134303D0014303D0012002E0022000E06C
:105000000020614601910021009702910A99002930
:1050100005D0614640020143704B019102E08007D8
:10502000002302909C4201DA012000E000200700EA
:105030003AD01A1BD006C00E15D0029D2021019C2B
:10504000091AC5408C402543029C8C4000D00124A5
:105050002543019C0295009DC4408D4000992C433E
:105060000194C140009154111DD06D4602210022CF
:1050700002290CD10320001B07E0002804DB860076
:10508000AE59002E00D00122401C0328F5DB081B7E
:1050900002D588002A5004E08000285810438A0076
:1050A000A850491EE3D51C460A98002802980CD047
:1050B000002800D001200199019A490508430121E7
:1050C000D20AC902D202019200E00121109B012202
:1050D000D207012B02D0002B03D013E0002807D108
:1050E0001FE0904204D890420CD1019B0B4209D0A2
:1050F000019B5918019105D10099491C009101D1DA
:10510000641C009200280CD0102108460020C046E4
:10511000002F06D01198002803D00821084600204F
:10512000C04608980999019A009B006809684840A0
:10513000C10F0798C907214382600AC00BB0F0BDB8
:1051400000B585B0019300920A460146002302A8EB
:10515000FFF7FCFD02A807C805B000BDFFB50A4671
:105160001F4685B00799019301230091014602A8CB
:10517000FFF7ECFD02990398049ECA0F4900D2077D
:1051800000920F22490892028C1A0021002800DBAD
:105190000C46450013486D08844214D3079A002A30
:1051A00004DA441E0026104DF64302E004460D4684
:1051B0000E46102108460020C046002F03D00421CF
:1051C00008460020C0462005E90A08430099084324
:1051D0006905F20A1143ADE602C0FFFF013C000081
:1051E000FF3F0000FF070000FFFFFF7F00B585B015
:1051F000019300920A460146002302A8FFF79CFE95
:1052000002A807C8A8E7FFB50A461F4685B0079958
:10521000019301230091014602A8FFF78DFE029938
:105220000398049ECA0F4900D20700920F22490832
:1052300092028C1A0021002800DB0C464500114820
:105240006D08844214D3079A002A04DA441E00260B
:105250000D4DF64302E004460D460E461021084669
:105260000020C046002F03D0042108460020C0467D
:105270002005E90A0843009908436905F20A114329
:1052800058E60000FF070000FFFFFF7FC80212D5AD
:105290004803400F002804D0C803C04301218840C0
:1052A0007047EFF30080000100090321090708435C
:1052B00080F30088704700207047000010B5002080
:1052C0000249029A00F0D2FA10BD00000000F87FF7
:1052D00010B5024800F0CAFA10BD00000000C07FFF
:1052E0007546FFF797FBAE46050069465346C00872
:1052F000C000854618B020B5FDF76EFF60BC0027E2
:105300004908B6460026C0C5C0C5C0C5C0C5C0C591
:10531000C0C5C0C5C0C5403D49008D4670473A284C
:1053200000D23038202302469A43412A01D3104646
:105330003738884201D30020C0437047FFB58BB097
:105340000878FF2806D0491C2D2805D0002300200E
:10535000009009E000200EE00123F8E7009A0A24FB
:1053600062438018491C00900878FF28F6D1002B72
:1053700002D0009840420090002503952C460D98DD
:1053800000782D2801D02B2815D10D99491C2D28E6
:105390000D9102D0002003900DE00120FBE7401C9E
:1053A000214600270A223B460D902846FDF726FF9E
:1053B00035183C464C410D980678FF2EEFD1002160
:1053C00008460020C0460399002902D081004018F9
:1053D00040080002860F012E01DD0026F6430E99DB
:1053E00000984718284620430BD0FF20F530C742CD
:1053F0001ADA0398C1070B98002E41600ADD0120DC
:1054000009E00398C1070B9841600B9900200860E0
:105410000FB0F0BD00200B990860FEF737FF0221A6
:105420000160182108461AE0FF20F530874219DD97
:10543000002E02DAFC48784401E0FC48784406C8B3
:105440000B9806C00B9803994068C90708430B994D
:105450004860FEF71BFF022101601421084600206E
:10546000C046D5E7002108460020C04639000A9012
:1054700001D5724200E03246002900DA794207A8DD
:10548000FFF7D8FB07AB07CB04AB07C3E848009096
:1054900000200146214304D12C460546E449203929
:1054A0000091210C0904014306D1290C24040C436A
:1054B00000992D0410390091210E0906014306D1EF
:1054C000290E24020C4300992D0208390091210F66
:1054D0000907014306D1290F24010C4300992D012E
:1054E000091F0091A10F8907014306D1A90FA4004C
:1054F0000C430099AD00891E0091E10FC9070843D4
:1055000004D100986D196441401E0090002F02954F
:10551000019406DD32466846012304A9FFF71EFE0A
:1055200005E001233246684604A9FFF76CFE0446F5
:1055300003980D46002802D00120C00744400021F6
:1055400008460020C0460A99BA4E48400007800F1E
:1055500007D160004008284303D06000400DB042EE
:1055600014D1FEF793FE022101606000400DB042AD
:105570000CD1B148784406C80B9806C00B98E10FCF
:10558000C907406808430B99486041E70B9844609D
:105590000B9805603CE7FFB51F4695B0002000253D
:1055A0000C909E685C68ED431390FFF73FFAC0686B
:1055B0000168405C1490B96916986D1C88470A9080
:1055C000396A88470028F6D10A98401C0AD00D2075
:1055D000C0018443002E12DD0A982B2809D02D2803
:1055E0000DD103E00020C04319B0F0BD01208002BE
:1055F0000443B96916986D1C8847761E0A906005A9
:1056000004A901D52D2000E02B206A46491C107406
:1056100010A8002E0D910B903BDD0A98692805D04B
:10562000492803D06E2801D04E281DD13B46039057
:1056300002200296179A1699C0430095019438F0FB
:105640000BFCC11CD0D10FE0B96916986D1C8847BE
:105650000A900120761E40020443179805601398B3
:10566000401C002E139014DD0A983028ECD07828C6
:1056700001D058280DD1139801280AD13B46029633
:10568000179A1699001F0095019438F0DDFBC11C94
:10569000AAD114990A98884246D18020044308E090
:1056A0000C981799401E0C90012040020443681C7E
:1056B0000860B9696D1C1698761E884730280A90D4
:1056C000EED031E01499884205D1200603D4802021
:1056D0000443761E1EE00A9817F0E4FC002826D04A
:1056E000012008A9400204430D980331761E884228
:1056F0000BD20A980D99303808700D98401C0D9007
:10570000200607D50C98401E03E0200602D40C9812
:10571000401C0C90A00502D51799681C0860B96957
:1057200016986D1C88470A90002ECBDC59E0002E9D
:1057300057DD0A98652801D0452852D1A00550D5DB
:105740000320B969000284436D1C1698761E8847B1
:10575000002E0A900CDD2B2804D02D2808D1FF2024
:1057600001300443B96916986D1C8847761E0A906B
:10577000E00501D52D2100E02B210B9801700B983D
:10578000401C0B90009025E0012012A94002044328
:105790000B980131761E88420ED20A980B99303848
:1057A0000006000E087003D100990B9888420AD9B0
:1057B0000B98401C0B9006E0E00501D51F4801E066
:1057C0001E4840420C90B96916986D1C88470A9093
:1057D00017980560002E04DD0A9817F063FC002876
:1057E000D2D1F969169888470D99FF2004AA08704C
:1057F0000B99087000200E900F900C9B10A90EA81A
:10580000FFF79CFDA00502D40120C043ECE6242054
:10581000044215D0E0071FD138680F9A0E99031D76
:105820003B60006806C017E08A3704007C3704003C
:105830003E400000FF07000044360400F1D8FFFF9F
:105840000EA9684617F0B2FBE00705D13868009A48
:10585000011D3960006802602846C5E610B504469F
:10586000C046C0462046FDF78BFC10BD10B50C4667
:105870001107090F092904D00A290AD008290CD1D7
:1058800004E011460820FFF701FD06E0510606D5A9
:1058900001E0510601D50120C007214610BDD10607
:1058A00007D501010909CC084907000E0006044389
:1058B00009E0410F20024907000A0143200E0006BB
:1058C0001D22D14101430846E7E7000001491820A5
:1058D000ABBEFEE726000200FFB51F4689B0139855
:1058E00012994005C00FC00705900020079005469B
:1058F0000446461E049002903C20491C12910690DA
:10590000B9690A98884703901498401E1490149817
:10591000002841DD03982E2816D01021FFF7FFFC48
:10592000002834DB01210491079901431AD006991C
:1059300000290CDB069AC11700F007FA0543069808
:105940000C43001F069006E0012002900EE00028A4
:1059500001D001200543012007900298002805D1BD
:10596000361D03E00298002800D0361F1298401C14
:105970001290B9690A98884703901498401E1490B1
:1059800004980028C3D00B9912980860BFE70398C9
:10599000702808D0502806D0F9690A9888470498DA
:1059A000002815D051E000200390012002900498B7
:1059B00000280AD01298401C1290B9690A988847AA
:1059C0001499491E0029149106DCF9690A98884740
:1059D0000120C0430DB0F0BD2B2804D02D280DD1DF
:1059E0000020C04302901298401C1290B9690A9896
:1059F00088471499491E00291491E6DD411CE4D022
:105A00000A21FFF78CFC0028DFDB03990A225143AF
:105A1000081803901298401C1290B9690A98884798
:105A20000A21FFF77CFC14990B9A491E14911299D4
:105A300011601499002901DD0028E6DAF9690A9855
:105A400088470299039848438619139824210840EF
:105A500004902846204304D0A10F8907090002D0F2
:105A600006E005989BE0A90FA4000C43AD00B61E0C
:105A7000E10FC907080002D16D196441761E049830
:105A8000002803D00B2002905D4803E028200290FC
:105A90007D20C0438642039007DA811B02980818D4
:105AA0004128029001DD41200290029A012000214C
:105AB000521E00F04AF9024628400B462140084396
:105AC00001D0012000E0002007900020521EC043BA
:105AD00043412A4023401A4301D0012000E0002026
:105AE00007990690014352D0002108460020C04685
:105AF0000321059A89050840002A05D082008018F4
:105B0000C20F1018401008408015012802DD002047
:105B1000C04301E0012815D0401C38D00798002868
:105B200035D0069800280DD1029A0120002100F0FE
:105B30000CF928402140084301D0012000E000205A
:105B4000002824D0029A0120002100F0FEF803462C
:105B500040198C4661412A1A8C410FD30298402883
:105B600007DD0498039E002801D0343E02E0173E72
:105B700000E0761C01240025E40708E05B1E624675
:105B80000024E4436241DD43D44305400C400398C4
:105B90000121081AB04206DA1A4905980843019013
:105BA000002000900EE060006205010BE80A10433F
:105BB000059A009068460A4313490A433146019208
:105BC00017F066FA049800280AD01398C00714D179
:105BD0003868019A0099031D3B60006806C00CE01C
:105BE00002A8694617F0E2F91398C00705D1386892
:105BF000029A011D3960006802601298EAE600000E
:105C000002FCFFFF0000F07F0000F03FFFB51D46E3
:105C100087B01198484A109C129E40051399C00FF6
:105C2000761EC0070243019200220092FF22D20595
:105C30001043202291434929059003D017464E294D
:105C400028D04FE03DA002AA0BC801270BC2A969CA
:105C50000898641C8847761E014607D402A8C05DD8
:105C6000002803D02022914381420AD0E969089894
:105C70008847032F36D0082F34D00120C0430BB003
:105C8000F0BD7F1C032F01D0082FE0D10999601CC3
:105C90000860DCE7A9690898641C8847761E2DD443
:105CA000B84341282AD1A9690898641C8847761E00
:105CB00024D4B8434E2821D1A9690898641C884788
:105CC00001990122D204114301910599D200114397
:105CD00005910999761E0C6001D4282806D0E9693F
:105CE000089888471198C00712D023E0A96908983E
:105CF000641C8847761E01D4002803DAE9690898F5
:105D00008847BAE72928F1D10998641C0460E9E7BB
:105D100011982421084207D02868019A0099031D90
:105D20002B60006806C005E028680599021D2A60FE
:105D3000006801602046A2E70000F07F494E464916
:105D40004E49545900000000704710B5202A04DB6A
:105D50000146203A9140002010BD914020239C1A1A
:105D60000346E3401943904010BD000070B505465E
:105D70004800440D124B0020002C0AD0634008D08C
:105D80009A4206DA6642B24203DD120540195141D9
:105D900070BD002C08D0002B09D0C90FC907002AFC
:105DA000F6DB084A114370BDC90FC90770BD28460C
:105DB0000A03104302D00020034970BD284670BD7D
:105DC000FF0700000000F07F0000F87F70B58D181D
:105DD0000478401CA207920F01D10278401C2311C5
:105DE00006D10378401C03E00678401C0E70491C65
:105DF000521EF9D1002B15D002780C2634408A1A95
:105E0000401C0C2C03D0A401121B9B1C08E004783E
:105E10002402121B401CF8E714780C70491C521C19
:105E20005B1EF9D5A942D3D3002070BD70B50446DE
:105E300020680EF08FFD064620680EF091FD0028C8
:105E400037D0002E35D12068806805210840012810
:105E500006D120680EF068FD03202168086009E083
:105E6000A06D10210843A065E06D01210843E065A5
:105E7000012070BD0CF038FA054614E00CF034FA3D
:105E8000401B02280FD920688068C007C00F002877
:105E900009D0A06D10210843A065E06D01210843E1
:105EA000E0650120E5E720688068C007C00F002892
:105EB000E4D10020DDE700000EB500200090019045
:105EC0000290224822490860012080044860002195
:105ED0001F488160C16001214905016104214161C0
:105EE00000210176417681760321C1610121001DE7
:105EF00001770021001F4162816224300172243841
:105F00000163032141638163002124300176243839
:105F1000C1640BF03FFA0F480090002001900290FE
:105F200069460B480BF080F80B4800900420019064
:105F3000694607480BF078F808480090082001905F
:105F4000694603480BF070F80EBD000000240140C4
:105F5000D484002020000014400000188000001CA1
:105F600010B5FFF7A9FF06480AF0FAFF04480AF047
:105F7000B3FF0446214602480AF0B5FF10BD0000F9
:105F8000D484002038B504460020009020680EF02C
:105F9000E7FC002858D1206880682C490840002878
:105FA00009D0A06D10210843A065E06D01210843D0
:105FB000E065012038BD20680EF0BEFC24480EF0DC
:105FC000C3FC0121C905084000280DD02149224801
:105FD0000068FDF7D5FC401C009002E00098401ED0
:105FE000009000980028F9D1607E01282CD00CF098
:105FF0007BF905461FE020680EF0B2FC002802D1B4
:1060000020680EF099FC0CF06FF9401B022812D9A1
:1060100020680068C007C00F0121484048400028A0
:1060200009D1A06D10210843A065E06D012108434E
:10603000E0650120BEE720680068C007C00F0121AD
:10604000484048400028D6D00020B3E71700008021
:1060500008270140400D03000400002010B5417CDA
:10606000027C0902114302462232537B147B1A023E
:106070002243914206DB0122014620310A740022AC
:106080004A7411E0417C027C09021143024620322D
:10609000537B147B1A022243914205DC0222014603
:1060A00020310A7400224A7410BD000000B59FB070
:1060B000782101A8FDF7B1FB782101A807F0C2FD06
:1060C000782201A90548FDF7F5FA05480078202156
:1060D00088432030024908701FB000BD8E3A00206E
:1060E0004203002010B51221FE48FDF794FB1D204D
:1060F000FC490870222048702F2088702F21F94811
:10610000C1703020F74908713021F64841713120C3
:10611000F44988713121F348C1713220F149087284
:106120003221F04841724520EE4988724521ED4800
:10613000C1724620EB4908734621EA484173472063
:10614000E84988734721E748C1734820E549087446
:106150004821E44841741C21E348FDF75CFB0E2113
:10616000E248FDF758FB1520DF49087048701620FB
:1061700088701621DC48C1701720DB49087117218F
:10618000D94841711820D84988711821D648C17161
:106190001A20D54908721A21D34841721B20D249CE
:1061A00088721B21D048C1721D20CF4908731D2160
:1061B000CD4841731E20CC4988731E21CA48C17343
:1061C0002520C94908742521C74841742620C6499D
:1061D00088742621C448C1742820C3490875282121
:1061E000C14841752920C04988752921BE48C1751B
:1061F0002B20BD4908762B21BB4841762C20BA497B
:1062000088762C21B848C1763320B8490870487088
:10621000342088703421B548C1703520B3490871E5
:106220003521B24841713620B04988713621AF48D6
:10623000C1713720AD4908723721AC48417238200E
:10624000AA4988723821A948C1723920A749087320
:106250003921A64841732421A548FDF7DCFA1A200C
:10626000A349087048701B2088701B21A048C1708A
:106270001C209F4908711C219D4841711D209C498B
:1062800088711D219A48C1711E20994908721E21EA
:10629000974841721F20964988721F219448C17205
:1062A000302093490873302191484173312090493F
:1062B000887331218E48C17332208D490874322190
:1062C0008B48417433208A49887433218848C174CB
:1062D0003420874908753421854841753520844923
:1062E000887535218248C1754A20814908764A213E
:1062F0007F4841764B207E4988764B217C48C17689
:106300004C207B4908774C21794841774D207849CA
:1063100088774D217648C1774E2120300170417039
:106320004F218170801C41700A217248FDF773FA79
:106330001D20704908702220487034208870342154
:106340006C48C17035206B4908713521694841712D
:1063500036206849887136216648C17147206549F1
:1063600008724B216348417208216348FDF753FAD4
:106370001E206149087048701F2088701F215E48E8
:10638000C17021205C49087121215B4841712220A4
:106390005949887122215848C17118215748FDF781
:1063A0003AFA21205549087048702220887022212D
:1063B0005248C17024205149087124214F4841712D
:1063C00025204E49887125214C48C17127204B4911
:1063D000087227214948417228204849887228219B
:1063E0004648C172352045490873352143484173F9
:1063F00036204249887336214048C17338203F49CE
:10640000087438213D48417439203C498874392149
:106410003A48C1743B20394908753B2137484175DA
:106420003C20364988753C213448C17510213448D8
:10643000FDF7F1F91A203249087048701B20887066
:106440001B212F48C1701C202D4908711C212C488C
:10645000417124202A49887124212948C1712520AD
:10646000274908722521264841722620244988722E
:1064700026212348C172272021490873272120485B
:10648000417328201E49887328211D48C173262185
:106490001C48FDF7C0F91C201A49087048701D20DF
:1064A00088701D211748C1701E20164908711E21D1
:1064B000144841711F20134988711F211148C1716F
:1064C00025201049087225210E48417226200D49C9
:1064D000887226210B48C17227200A490873272198
:1064E000084811E0C8330020DA330020F6330020DA
:1064F000043400202834002082020020323400209E
:106500004A3400205A34002041733720BC49887334
:106510003721BB48C1733820B94908743821B848BD
:1065200041743A20B64988743A21B548C1743B2079
:10653000B34908753B21B24841753D20B049887583
:106540003D21AF48C1753E20AD4908763E21AC489B
:1065500041764B20AA4988764B21A948C1764C2028
:10656000A74908774C21A64841774E20A44988774F
:106570004E21A348C1774F21203001704170512135
:106580008170801C41705221801E0171001D41707C
:106590000A219C48FDF73FF937209A490870487056
:1065A0003820887038219748C17039209549087182
:1065B0003921944841713A20924988713A21914891
:1065C000C1713B208F4908723B218E4841720C21DA
:1065D0008D48FDF720F922208B4908704870232050
:1065E000887023218848C17024208749087124219C
:1065F0008548417137208449887137218248C171AB
:1066000038208149087238217F48417239207E49FB
:10661000887239217C48C1727C4800210180418008
:1066200013207A49087016204870192088701C21A0
:106630007648C1700A217648FDF7EDF83720744995
:10664000087048703820887038217148C17039202E
:106650006F49087139216E4841713A206C4988713F
:106660003A216B48C1713B20694908723B21684857
:1066700041720C216748FDF7CEF838206549087053
:1066800048703920887039216248C1703A206149C8
:1066900008713A215F4841713B205E4988713B2176
:1066A0005C48C1713C205B4908723C2159484172E9
:1066B0003D20584988723D215648C1720E215648E6
:1066C000FDF7A9F8202054490870487021208870EF
:1066D00021215148C17023204F49087123214E4880
:1066E000417124204C49887124214B48C1712620D6
:1066F0004949087226214848417227204649887234
:1067000027214548C1720E214448FDF784F8342002
:106710004249087048703520887035213F48C17063
:1067200037203E49087137213C48417138203B49A8
:10673000887138213948C1713A20384908723A21A4
:10674000364841723B20354988723B213348C1723B
:106750000C213348FDF75FF84A2031490870487032
:106760004B2088704B212E48C1704C202C49087159
:106770004C212B4841714D20294988714D212848D1
:10678000C1714E20264908724E21254841720621CA
:106790002448FDF742F848202249087048704920F3
:1067A000887049211F48C1704A201E4908714A213A
:1067B0001C4841710C211C48FDF72DF837201A495F
:1067C000087048703820887038211748C1703A2006
:1067D000154908713A21144841713B2012498871CA
:1067E0003B211148C1713C200F4908723C210E48E1
:1067F00041723D200C4988723D210B48C17210BD89
:106800005A340020803400208A3400208A0200207C
:1068100096340020A034002094330020A2330020BE
:10682000B03300207C020020BC33002010B51221C0
:10683000FE48FCF7F0FF1D20FC490870222048703C
:106840002F2088702F21F948C1703020F749087136
:106850003021F64841713120F44988713121F348E3
:10686000C1713220F14908723221F048417245204D
:10687000EE4988724521ED48C1724620EB49087304
:106880004621EA4841734720E84988734721E74891
:10689000C1734820E54908744821E44841741C212B
:1068A000E348FCF7B8FF0E21E248FCF7B4FF1B20D9
:1068B000DF49087048701C2088701C21DC48C170BA
:1068C0001D20DB4908711D21D94841711E20D8497E
:1068D00088711E21D648C1712020D5490872202117
:1068E000D34841722120D24988722121D048C172F7
:1068F0002320CF4908732321CD4841732420CC495C
:1069000088732421CA48C1733120C94908743121D0
:10691000C74841743220C64988743221C448C174C2
:106920003420C34908753421C14841753520C04918
:1069300088753521BE48C1753720BD490876372195
:10694000BB4841763820BA4988763821B848C176A4
:106950004720B84908704C204870472088704C2167
:10696000B448C1704720B34908714D21B148417105
:106970004720B04988714F21AE48C1714720AD49C9
:1069800008724E21AB4841724720AA4988724C21B7
:10699000A848C1724720A74908734E21A5484173F2
:1069A0002421A548FCF737FF1A20A3490870487036
:1069B0001B2088701B21A048C1701C209E490871B3
:1069C0001C219D4841711D209B4988711D219A48B9
:1069D000C1711E20984908721E21974841721F20DC
:1069E000954988721F219448C172302092490873DA
:1069F00030219148417331208F49887331218E486D
:106A0000C17332208C49087432218B484174332081
:106A10008949887433218848C174342086490875AF
:106A20003421854841753520834988753521824850
:106A3000C1754A20804908764A217F4841764B201B
:106A40007D4988764B217C48C1764C207A4908776D
:106A50004C21794841774D20774988774D217648F8
:106A6000C1774E212030017041704F218170801C10
:106A700041700A217148FCF7CEFE1D206F49087055
:106A8000222048703420887034216C48C170352031
:106A90006A49087135216948417136206749887112
:106AA00036216648C1714720644908724B2163480A
:106AB000417263480021016041601E2060490870F6
:106AC00048701F2088701F215D48C17021205C49DB
:106AD000087121215A484171222059498871222187
:106AE0005748C17118215748FCF795FE2120554998
:106AF000087048702220887022215248C1702420DA
:106B00005049087124214F48417125204D49887111
:106B100025214C48C17127204A490872272149483C
:106B2000417228204749887228214648C172352081
:106B300044490873352143484173362041498873DD
:106B400036214048C17338203E49087438213D48F9
:106B5000417439203B49887439213A48C1743B203B
:106B6000384908753B21374841753C2035498875BF
:106B70003C213448C17510213348FCF74CFE1A20E3
:106B80003149087048701B2088701B212E48C17045
:106B90001C202D4908711C212B48417124202A49B1
:106BA000887124212848C171252027490872252190
:106BB0002548417226202449887226212248C17224
:106BC00027202149087327211F48417328201E4987
:106BD000887328211C48C17326211C48FCF71BFE22
:106BE0001C201A49087048701D2088701D21174804
:106BF000C1701E20154908711E21144841711F20C3
:106C0000124988711F211148C17125200F4908724E
:106C100025210E48417226200C49887226210B48F6
:106C2000C172272009490873272111E0363200205C
:106C30004832002064320020723200209632002058
:106C400070020020A0320020B8320020C83200209C
:106C5000FE4841733720FD4988733721FB48C173D3
:106C60003820FA4908743821F84841743A20F74925
:106C700088743A21F548C1743B20F44908753B21DA
:106C8000F24841753D20F14988753D21EF48C175B5
:106C90003E20EE4908763E21EC4841764B20EB49F8
:106CA00088764B21E948C1764C20E84908774C2189
:106CB000E64841774E20E54988774E21E348C17781
:106CC0004F2120300170417051218170801C417032
:106CD0005221801E0171001D41700A21DC48FCF721
:106CE0009AFD3720DA4908704870382088703821BA
:106CF000D748C1703920D64908713921D44841712B
:106D00003A20D34988713A21D148C1713B20D049FA
:106D100008723B21CE4841720C21CE48FCF77BFD26
:106D20002220CC4908704870232088702321C9484C
:106D3000C1702420C74908712421C64841713720F9
:106D4000C44988713721C348C1713820C1490872CC
:106D50003821C04841723920BE4988723921BD4866
:106D6000C172BD48002101601920BB4908701C2078
:106D70004870212088702621B748C170B74800218B
:106D8000018041801320B5490870162048701920F1
:106D900088701C21B148C1700A21B148FCF73BFD45
:106DA0003720AF4908704870382088703821AC48C7
:106DB000C1703920AA4908713921A94841713A2086
:106DC000A74988713A21A648C1713B20A44908729D
:106DD0003B21A34841720C21A248FCF71CFD38203E
:106DE000A049087048703920887039219D48C170C9
:106DF0003A209C4908713A219A4841713B209949AF
:106E000088713B219748C1713C20964908723C210A
:106E1000944841723D20934988723D219148C17246
:106E200010219148FCF7F7FC21208F490870487029
:106E30002220887022218C48C17023208A49087141
:106E4000232189484171242087498871242186485B
:106E5000C17135208449087235218348417236203A
:106E60008149887236218048C17237207E49087373
:106E700037217D48417338207B49887338217A480F
:106E8000C1730C217948FCF7C6FC1E2077490870B5
:106E900048701F2088701F217448C17020207349DA
:106EA000087120217148417137207049887137215C
:106EB0006E48C17138206D49087238216B484172A3
:106EC00039206A49887239216848C1720C216848A2
:106ED000FCF7A1FC232066490870487024208870C4
:106EE00024216348C170252061490871252160482B
:106EF00041713C205E4988713C215D48C1713D2053
:106F00005B4908723D215A4841723E2058498872B7
:106F10003E215748C1720C215648FCF77CFC2320C7
:106F20005449087048702420887024215148C17049
:106F300025205049087125214E4841713C204D497A
:106F400088713C214B48C1713D204A4908723D215E
:106F5000484841723E20474988723E214548C172E7
:106F600014214548FCF757FC21204349087048701C
:106F70002220887022214048C17023203E49087198
:106F800023213D48417124203B49887124213A48FE
:106F9000C1712520384908722521374841723A20AD
:106FA000354988723A213448C1723B20324908730E
:106FB0003B21314841733C202F4988733C212E48A6
:106FC000C1733D202C4908743D212B4841743E205B
:106FD000294988743E212848C17418212748FCF7A4
:106FE0001AFC22202549087048702320887023212C
:106FF0002248C17024202149087124211F48417171
:1070000025201E49887125211C48C17136201B4945
:107010000872362119484172372018498872372181
:107020001648C17238201549087338211348417336
:1070300039201249887339211048C1734C200F49F7
:1070400008744C210D4841744D2019E0C8320020CD
:10705000EE320020F8320020780200208A02002060
:10706000043300200E3300201A3300202A3300207E
:107070003633002056330020423300206233002094
:10708000304988744D212F48C1744E202D49087510
:107090004E212C4841754F202A4988754F21294897
:1070A000C1751A212848FCF7B6FB1F202649087035
:1070B00048702020887020212348C1702120224957
:1070C000087121212048417137201F4988713721DB
:1070D0001D48C17138201C49087238211A48417274
:1070E00039201949887239211748C1723A20164946
:1070F00008733A21144841733B20134988733B219C
:107100001148C17350201049087450210E48417431
:1071100051200D49887451210B48C17452200A49ED
:107120000875522108484175532007498875532135
:107130000548C17554200449087654210248417617
:1071400010BD0000623300207A330020024800782E
:10715000401C014908707047142C0020014608119A
:1071600006225043081AC0B2704710B504460A21DF
:107170002046FCF70FFC062148430019C0B210BDA1
:107180001FB504460020029003900090019002A8D1
:1071900000F096F90399029816F05AF9002800D0E9
:1071A0001FBD684600F08CF90199009816F050F95F
:1071B000002800D0F4E70622694602A8FCF727FA67
:1071C000002822D16946087AFFF7C8FF2070694677
:1071D000487AFFF7C3FF60706946887AFFF7BEFF01
:1071E000A0706946C87AFFF7B9FFE0706946087B6E
:1071F000FFF7B4FF20716946487BFFF7AFFF60716E
:107200006946887BFFF7AAFFA07100BFC8E70000AE
:1072100010B501221021134806F0BBFE0022082100
:10722000104806F0C5FE002210210E4806F0C0FEF0
:107230000A2004F009F8012208210A4806F0B8FEE5
:107240000A2004F001F800220821064806F0B0FEEA
:107250000A2003F0F9FF01221021024806F0A8FEDF
:1072600010BD00000004005010B50122102110488C
:1072700006F08FFE002208210D4806F099FE01223B
:1072800010210B4806F094FE0A2003F0DDFF0122D6
:107290000821074806F08CFE0A2003F0D5FF0022E3
:1072A0000821034806F084FE0A2003F0CDFF10BD3C
:1072B0000004005010B500220821134806F078FEA3
:1072C00000221021104806F064FE0A2003F0BCFFE3
:1072D000012208210C4806F06BFE0A2003F0B4FFDF
:1072E0001021094806F050FEC4B20A2003F0ACFF9A
:1072F00000220821044806F05BFE002C01D001208A
:1073000010BD0020FCE700000004005070B5002410
:10731000002506E06006040EFFF7CCFF0443681C5E
:10732000C5B2082DF6DB204670BD000010B5012265
:107330001021104806F02DFE012210210D4806F004
:1073400037FE012208210B4806F032FE0A2003F026
:107350007BFF00221021074806F02AFE0A2003F0D6
:1073600073FF00220821034806F022FE0A2003F0E2
:107370006BFF10BD0004005010B5012210210E4813
:1073800006F007FE002210210B4806F011FE0A202D
:1073900003F05AFF01220821074806F009FE0A20DF
:1073A00003F052FF01221021034806F001FE0A20DB
:1073B00003F04AFF10BD00000004005010B5044661
:1073C00001221021104806F0E4FD002208210E4899
:1073D00006F0EEFD0A2003F037FF002C01D001205B
:1073E00000E0002002461021074806F0E1FD0A20D7
:1073F00003F02AFF01220821034806F0D9FD0A20E4
:1074000003F022FF10BD00000004005070B50446D8
:10741000002508E0802121400846FFF7CFFF6006E5
:10742000040E681CC5B2082DF4DB70BD1CB500212C
:107430000191009101A90E2000F013F869460F2078
:1074400000F00FF8684600780011022807D00021EC
:107450000E2000F0AAF820210F2000F0A6F81CBD95
:10746000704770B504460D4672B6FFF75FFF6420A3
:10747000FFF7CCFFFFF71EFF0646012E04D1FFF7F2
:107480007BFF62B6002070BD2101F0221140402236
:1074900011430846FFF7BAFFFFF70CFF0646012E1F
:1074A00004D1FFF769FF62B60020ECE7FFF72EFF7B
:1074B0002870FFF7D9FEFFF75FFF62B60120E2E711
:1074C00070B5044672B6FFF731FF6520FFF79EFFE7
:1074D000FFF7F0FE0546012D04D1FFF74DFF62B620
:1074E000002070BDFFF712FFFFF792FEFFF70EFFBF
:1074F000A071FFF78DFEFFF709FF6071FFF788FEAF
:10750000FFF704FF2071FFF783FEFFF7FFFEE07037
:10751000FFF77EFEFFF7FAFEA070FFF779FEFFF798
:10752000F5FE6070FFF774FEFFF7F0FE2070FFF7C6
:107530009BFEFFF721FF62B60120D2E703B583B0BF
:107540000020019002906946087BFFF70EFE694615
:107550000871487BFFF709FE69464871887BFFF791
:1075600004FE69468871C87BFFF7FFFD6946C87154
:10757000087CFFF7FAFD69460872487CFFF7F5FDC5
:1075800069464872887CFFF7F0FD69468872029967
:10759000019815F05DFF002801D005B000BD0299EB
:1075A000019800F037F800BFF7E770B505460E46C2
:1075B00072B6FFF7BBFE6420FFF728FFFFF77AFEE5
:1075C0000446012C04D1FFF7D7FE62B6002070BD3F
:1075D0002901F02211400846FFF718FFFFF76AFE65
:1075E0000446012C04D1FFF7C7FE62B60020EEE787
:1075F0003046FFF70BFFFFF75DFE0446012C04D178
:10760000FFF7BAFE62B60020E1E7FFF7B5FE62B60B
:107610000120DCE713B572B6FFF788FE6420FFF7A0
:10762000F5FEFFF747FE0446012C04D1FFF7A4FE48
:1076300062B600201CBD0020FFF7E8FEFFF73AFE0F
:107640000446012C04D1FFF797FE62B60020F1E753
:1076500069468879FFF7DAFEFFF72CFE0446012C15
:1076600004D1FFF789FE62B60020E3E76946487956
:10767000FFF7CCFEFFF71EFE0446012C04D1FFF7F6
:107680007BFE62B60020D5E769460879FFF7BEFEAB
:10769000FFF710FE0446012C04D1FFF76DFE62B621
:1076A0000020C7E76946C878FFF7B0FEFFF702FE83
:1076B0000446012C04D1FFF75FFE62B60020B9E753
:1076C00069468878FFF7A2FEFFF7F4FD0446012C17
:1076D00004D1FFF751FE62B60020ABE76946487857
:1076E000FFF794FEFFF7E6FD0446012C04D1FFF7F7
:1076F00043FE62B600209DE769460878FFF786FEE4
:10770000FFF7D8FD0446012C04D1FFF735FE62B621
:1077100000208FE7FFF730FE62B601208AE7000005
:1077200010B586B0044618216846FCF776F8207834
:107730008007C00F00281AD0FE4880788007C00F4D
:10774000002814D1FC4968464170090A817004215F
:1077500001710121C170552141710BF001FFF54804
:10776000807802218843801CF249887019E02078D3
:107770008007C00F002814D1EE4880788007C00F22
:1077800000280ED0EC4968464170090A8170AA2190
:10779000417103F097FDE748807802218843E5496D
:1077A000887020784007C00F00281BD0E1488078FF
:1077B0004007C00F002815D1DF49491E68464170B7
:1077C000090A8170042101710121C17055214171A3
:1077D0000BF0C6FED748807804218843001DD549A8
:1077E00088701AE020784007C00F002815D1D148D2
:1077F00080784007C00F00280FD0CF49491E684647
:107800004170090A8170AA21417103F05BFDC948EA
:10781000807804218843C749887020780007C00F0A
:1078200000281BD0C34880780007C00F002815D15E
:10783000C149091F68464170090A8170042101711C
:107840000121C170552141710BF08AFEB948807841
:10785000082188430830B74988701AE0207800076B
:10786000C00F002815D1B34880780007C00F00284A
:107870000FD0B149091F68464170090A8170AA21D9
:10788000417103F01FFDAB48807808218843A94966
:1078900088702078C006C00F00281BD0A5488078CB
:1078A000C006C00F002815D1A349491F6846417082
:1078B000090A8170042101710121C17055214171B2
:1078C0000BF04EFE9B488078102188431030994978
:1078D00088701AE02078C006C00F002815D195489E
:1078E0008078C006C00F00280FD09349491F684612
:1078F0004170090A8170AA21417103F0E3FC8D48AF
:107900008078102188438B4988702078C00900282E
:107910001AD088488078C009002815D186490E31D0
:1079200068464170090A8170042101710121C1700A
:10793000552141710BF014FE7E48807880218843E8
:1079400080307C49887018E02078C009002814D164
:1079500078488078C00900280FD077490E316846F2
:107960004170090A8170AA21417103F0ABFC714892
:107970008078802188436F4988706078C007C00F85
:1079800000281ED06B48801C4078C007C00F00281C
:1079900017D169490F3168464170090A8170042185
:1079A00001710121C170552141710BF0D9FD614870
:1079B000801C407840084000401C5E49891C48708B
:1079C0001DE06078C007C00F002818D15948801CFE
:1079D0004078C007C00F002811D057490F316846C2
:1079E0004170090A8170AA21417103F06BFC514872
:1079F000801C4078400840004E49891C48706078DF
:107A00000007C00F00281ED04A48801C407800079D
:107A1000C00F002817D148490C3168464170090A47
:107A20008170042101710121C170552141710BF058
:107A300097FD4048801C40780821884308303D4924
:107A4000891C48701DE060780007C00F002818D11D
:107A50003848801C40780007C00F002811D03649F4
:107A60000C3168464170090A8170AA21417103F006
:107A700029FC3048801C4078082188432D49891C06
:107A80004870A0788007C00F00281ED02948801CAD
:107A900080788007C00F002817D18121C90068466F
:107AA0004170090A8170042101710121C1705521C1
:107AB00041710BF055FD1F48801C807802218843DE
:107AC000801C1C49891C88701DE0A0788007C00FAD
:107AD000002818D11748801C80788007C00F002824
:107AE00011D08121C90068464170090A8170AA211C
:107AF000417103F0E7FB0F48801C80780221884326
:107B00000C49891C8870A0784007C00F002821D03C
:107B10000848801C80784007C00F00281AD1064909
:107B2000303968464170090A8170042101710121D0
:107B3000C17003E0A56900203704000055214171A0
:107B40000BF00EFDA548807804218843001DA34951
:107B5000887019E0A0784007C00F002814D19F4812
:107B600080784007C00F00280ED09D4968464170BC
:107B7000090A8170AA21417103F0A4FB974880781B
:107B80000421884395498870A0780007C00F002819
:107B90001BD0924880780007C00F002815D190496B
:107BA000C91E68464170090A8170042101710121D2
:107BB000C170552141710BF0D3FC884880780821B1
:107BC00088430830854988701AE0A0780007C00F04
:107BD000002815D1814880780007C00F00280FD0F9
:107BE0007F49C91E68464170090A8170AA21417106
:107BF00003F068FB794880780821884377498870CA
:107C0000A078C006C00F00281BD074488078C0063A
:107C1000C00F002815D17249091F68464170090A32
:107C20008170042101710121C170552141710BF056
:107C300097FC6A4880781021884310306749887023
:107C40001AE0A078C006C00F002815D163488078DC
:107C5000C006C00F00280FD06149091F6846417057
:107C6000090A8170AA21417103F02CFB5B488078DE
:107C70001021884359498870A078C00900281AD07B
:107C800056488078C009002815D155491E316846EC
:107C90004170090A8170042101710121C1705521CF
:107CA00041710BF05DFC4D48807880218843803025
:107CB0004A49887018E0A078C009002814D14748C4
:107CC0008078C00900280FD045491E3168464170B0
:107CD000090A8170AA21417103F0F4FA3F488078C3
:107CE000802188433D498870E078C007C00F002894
:107CF0001BD03A48C078C007C00F002815D13849BA
:107D00001F3168464170090A817004210171012107
:107D1000C170552141710BF023FC3048C0784008F8
:107D20004000401C2D49C8701AE0E078C007C00F21
:107D3000002815D12948C078C007C00F00280FD0EF
:107D400027491F3168464170090A8170AA21417193
:107D500003F0B8FA2148C078400840001F49C870B5
:107D6000E0780007C00F00281BD01C48C07800072F
:107D7000C00F002815D11A491D3168464170090A03
:107D80008170042101710121C170552141710BF0F5
:107D9000E7FB1248C0780821884308300F49C870B3
:107DA0001AE0E0780007C00F002815D10B48C07812
:107DB0000007C00F00280FD009491D3168464170E7
:107DC000090A8170AA21417103F07CFA0348C07846
:107DD000082188430149C87006B010BDA76900207A
:107DE0000704000010B5274815F0C8FA25480068B8
:107DF000254A811A90421ED007DC2449401A37D008
:107E0000012809D005283AD10DE003291BD0062905
:107E100021D0082933D123E008221A49491D1C48E2
:107E2000FBF748FC2CE004221649491D184808308D
:107E3000FBF740FC24E006221249491D14480C308F
:107E4000FBF738FC1CE004220E49491D1048133092
:107E5000FBF730FC14E00E480A494979C1750FE080
:107E600005220849491D0A481830FBF723FC07E0A2
:107E7000074804494A7942778979817700E000BF51
:107E800000BF10BDE83F0020560300005003000073
:107E9000B83F002010B5084808490860082008715C
:107EA000082207490548401DFBF704FC03480FC89A
:107EB00015F074FA10BD000005030000D83F002043
:107EC0004603002010B586B0044618216846FBF72B
:107ED000A4FC20798007C00F00281FD0FE48807FB7
:107EE0008007C00F002819D1FC4968464170090A73
:107EF0008170042101710121C170552141710BF084
:107F00002FFBF548807F0221C94308400121491811
:107F1000022211400843F04988771FE0207980074A
:107F2000C00F00281AD1EC48807F8007C00F0128BD
:107F300014D1EA4968464170090A8170AA21417149
:107F400003F0C0F9E448807F0221C94308400021C2
:107F50004918022211400843DF49887720794007F9
:107F6000C00F002820D0DC48807F4007C00F0028C9
:107F70001AD1DA49491C68464170090A8170042106
:107F800001710121C170552141710BF0E9FAD2480C
:107F9000807F0421C9430840012189000422114047
:107FA0000843CD49887720E020794007C00F00289A
:107FB0001BD1C948807F4007C00F012815D1C74990
:107FC000491C68464170090A8170AA21417103F079
:107FD00079F9C148807F0421C94308400021890004
:107FE000042211400843BC49887720790007C00F5C
:107FF000002820D0B848807F0007C00F00281AD181
:10800000B649891C68464170090A817004210171D2
:108010000121C170552141710BF0A2FAAE48807F59
:108020000821C94301400120C0000822104001433B
:10803000A948817720E020790007C00F00281BD1D4
:10804000A548807F0007C00F012815D1A349891CCE
:1080500068464170090A8170AA21417103F032F922
:108060009D48807F0821C94308400021C90008229B
:1080700011400843984988772079C006C00F00282E
:1080800020D09548807FC006C00F00281AD19349A0
:10809000C91C68464170090A8170042101710121DF
:1080A000C170552141710BF05BFA8B48807F102124
:1080B000C9430840012109011022114008438649A3
:1080C000887720E02079C006C00F00281BD18248A5
:1080D000807FC006C00F012815D18049C91C6846A1
:1080E0004170090A8170AA21417103F0EBF87A48C6
:1080F000807F1021C9430140002000011022104060
:1081000001437548817720798006C00F002820D070
:108110007148807F8006C00F00281AD16F49091D61
:1081200068464170090A8170042101710121C17002
:10813000552141710BF014FA6748807F2021C94313
:1081400008400121490120221140084362498877F3
:1081500020E020798006C00F00281BD15E48807F78
:108160008006C00F012815D15C49091D6846417081
:10817000090A8170AA21417103F0A4F85648807F52
:108180002021C94308400021490120221140084311
:108190005149887720794006C00F002820D04E48EA
:1081A000807F4006C00F00281AD14C49491D6846FF
:1081B0004170090A8170042101710121C1705521AA
:1081C00041710BF0CDF94448807F4021C9430840FC
:1081D000012189014022114008433F49887720E06E
:1081E00020794006C00F00281BD13B48807F400605
:1081F000C00F012815D13949491D68464170090A47
:108200008170AA21417103F05DF83348807F4021DD
:10821000C9430840002189014022114008432E49EA
:1082200088772079C009002820D02B48807F00065D
:10823000C00F00281AD12949891D68464170090AD2
:108240008170042101710121C170552141710BF030
:1082500087F92148807F8021C94308400121C90155
:108260008022114008431C4988771FE02079C0090B
:1082700000281BD11848807F0006C00F012815D1A7
:108280001649891D68464170090A8170AA21417109
:1082900003F018F81048807F8021C943084000216E
:1082A000C9018022114008430B498877A079000753
:1082B000C00F002826D008481A3080790007C00F68
:1082C00000281FD10549123168464170090A8170A2
:1082D00004210171012103E08569002031040000BF
:1082E000C170552141710BF03BF9FE48807908219E
:1082F000C94308400121C900082211400843F94937
:1083000088711FE0A0790007C00F00281AD1F54836
:1083100080790007C00F012814D1F34968464170E5
:10832000090A8170AA21417102F0CCFFED488079E1
:108330000821C94301400020C00008221040084322
:10834000E8498871A0798006C00F002820D0E54850
:1083500080798006C00F00281AD1E349891C68463D
:108360004170090A8170042101710121C1705521F8
:1083700041710BF0F5F8DB4880792021C9430840B2
:1083800001214901202211400843D649887120E08B
:10839000A0798006C00F00281BD1D24880798006C2
:1083A000C00F012815D1D049891C68464170090ABF
:1083B0008170AA21417102F085FFCA48807920218D
:1083C000C943084000214901202211400843C54902
:1083D0008871A0794006C00F002820D0C14880795C
:1083E0004006C00F00281AD1BF49C91C6846417019
:1083F000090A8170042101710121C1705521417167
:108400000BF0AEF8B74880794021C94308400121FC
:108410008901402211400843B249887120E0A079C7
:108420004006C00F00281BD1AE4880794006C00F1F
:10843000012815D1AC49C91C68464170090A8170F0
:10844000AA21417102F03EFFA64880794021C9432C
:10845000014000208001402210400143A148817169
:108460002078C007C00F002821D09E481A38807E8F
:108470000121084000281AD19B49423968464170C1
:10848000090A8170042101710121C17055214171D6
:108490000BF066F893481A38807E0121C9430140E9
:1084A0000120004001438F481A3881761FE0207870
:1084B000C007C00F00281AD18A481A38807E0121CF
:1084C0000840012813D18849423968464170090A99
:1084D0008170AA21417102F0F5FE82481A38807E2F
:1084E0000121C943014001227E481A388176207853
:1084F0008007C00F002823D07A481A38807E800772
:10850000C00F00281CD17849413968464170090ADA
:108510008170042101710121C170552141710BF05D
:108520001FF870481A38807E0221C943014001209B
:1085300000180222104001436A481A38817623E06D
:1085400020788007C00F00281ED166481A38807E28
:108550008007C00F012817D163494139684641702F
:10856000090A8170AA21417102F0ACFE5D481A38F7
:10857000807E0221C943084000214918022211408F
:10858000084358491A39887620784007C00F0028D8
:1085900023D054481A38807E4007C00F00281CD1D1
:1085A0005149403968464170090A817004210171BE
:1085B0000121C170552141710AF0D2FF49481A3892
:1085C000807E0421C9430840012189000422114012
:1085D000084344491A39887623E020784007C00FC1
:1085E00000281ED13F481A38807E4007C00F01285E
:1085F00017D13D49403968464170090A8170AA2166
:10860000417102F05FFE37481A38807E0421C94369
:1086100008400021890004221140084331491A39D9
:10862000887620780007C00F002823D02D481A38FC
:10863000807E0007C00F00281CD12B493F396846B7
:108640004170090A8170042101710121C170552115
:1086500041710AF085FF23481A38807E0821C943FA
:1086600008400121C9000822114008431D491A3958
:10867000887623E020780007C00F00281ED1194813
:108680001A38807E0007C00F012817D116493F39DC
:1086900068464170090A8170AA21417102F012FEF8
:1086A00010481A38807E0821C94301400020C000CC
:1086B0000822104008430B491A3988762078C006F2
:1086C000C00F002826D007481A38807EC006C00F89
:1086D00000281FD104493E3968464170090A81705B
:1086E000042103E09F69002043040000017101217F
:1086F000C170552141710AF033FFFD48807E102181
:10870000C943084001210901102211400843F849DA
:1087100088761FE02078C006C00F00281AD1F448E0
:10872000807EC006C00F012814D1F249684641700E
:10873000090A8170AA21417102F0C4FDEC48807ED3
:108740001021C943014000200001102210400143C4
:10875000E748817620788006C00F002820D0E448C2
:10876000807E8006C00F00281AD1E249491C684665
:108770004170090A8170042101710121C1705521E4
:1087800041710AF0EDFEDA48807E2021C94308409D
:1087900001214901202211400843D549887620E073
:1087A00020788006C00F00281BD1D148807E80062B
:1087B000C00F012815D1CF49491C68464170090AEC
:1087C0008170AA21417102F07DFDC948807E20217F
:1087D000C943014000204001202210400143C44809
:1087E000817620784006C00F002820D0C048807EC7
:1087F0004006C00F00281AD1BE49891C6846417046
:10880000090A8170042101710121C1705521417152
:108810000AF0A6FEB648807E4021C94308400121E7
:108820008901402211400843B149887620E0207830
:108830004006C00F00281BD1AD48807E4006C00F07
:10884000012815D1AB49891C68464170090A81701D
:10885000AA21417102F036FDA548807E4021C9431E
:10886000014000208001402210400843A049887642
:108870002078C009002820D09D48807E0006C00FC7
:1088800000281AD18121C90068464170090A817007
:10889000042101710121C170552141710AF060FE6E
:1088A0009348807E8021C94308400121C90180226C
:1088B000114008438E4988761FE02078C0090028BF
:1088C0001BD18B48807E0006C00F012815D1812165
:1088D000C90068464170090A8170AA21417102F0FD
:1088E000F1FC8348807E8021C94308400021C901F2
:1088F0008022114008437E498876A078C006C00FC8
:10890000002820D07A48007FC006C00F00281AD166
:1089100078491F3168464170090A8170042101714C
:108920000121C170552141710AF01AFE7048007F83
:108930001021C943084001210901102211400843B8
:108940006B49087720E0A078C006C00F00281BD133
:108950006748007FC006C00F012815D165491F3147
:1089600068464170090A8170AA21417102F0AAFC8F
:108970005F48007F1021C943014000200001102200
:10898000104001435A480177A0788006C00F0028A4
:1089900020D05748007F8006C00F00281AD15549C3
:1089A000203168464170090A81700421017101215A
:1089B000C170552141710AF0D3FD4D48007F20213F
:1089C000C94301400120400120221040084348498A
:1089D000087720E0A0788006C00F00281BD144480B
:1089E000007F8006C00F012815D14249203168461A
:1089F0004170090A8170AA21417102F063FC3C4870
:108A0000007F2021C9430840002149012022114054
:108A1000084337490877A0784006C00F002820D0C7
:108A20003348007F4006C00F00281AD13149213158
:108A300068464170090A8170042101710121C170E9
:108A4000552141710AF08CFD2948007F4021C9431E
:108A50000840012189014022114008432449087738
:108A600020E0A0784006C00F00281BD12048007FDE
:108A70004006C00F012815D11E49213168464170BA
:108A8000090A8170AA21417102F01CFC1848007F7C
:108A90004021C9430140002080014022104008438A
:108AA00013490877A078C009002825D01048007F16
:108AB0000006C00F00281FD10E49223168464170C0
:108AC000090A8170042101710121C1705521417190
:108AD0000AF046FD0648007F8021C9430840012175
